{
  "contractName": "MultiSend",
  "abi": [
    {
      "inputs": [],
      "stateMutability": "nonpayable",
      "type": "constructor"
    },
    {
      "inputs": [
        {
          "internalType": "address",
          "name": "token",
          "type": "address"
        },
        {
          "internalType": "address[]",
          "name": "addresses",
          "type": "address[]"
        },
        {
          "internalType": "uint256[]",
          "name": "amounts",
          "type": "uint256[]"
        }
      ],
      "name": "multi_send_token",
      "outputs": [
        {
          "internalType": "bool",
          "name": "success",
          "type": "bool"
        }
      ],
      "stateMutability": "payable",
      "type": "function",
      "payable": true
    },
    {
      "inputs": [],
      "name": "get_balance",
      "outputs": [],
      "stateMutability": "nonpayable",
      "type": "function"
    }
  ],
  "bytecode": "0x608060405234801561001057600080fd5b50610ab4806100206000396000f3fe6080604052600436106100295760003560e01c806335d216ad1461002e578063c1cfb99a1461005e575b600080fd5b610048600480360381019061004391906106f3565b610075565b6040516100559190610799565b60405180910390f35b34801561006a57600080fd5b50610073610392565b005b6000806000905060005b83518160ff1610156100d0576100bb848260ff16815181106100a4576100a36107b4565b5b60200260200101518361041990919063ffffffff16565b915080806100c89061081f565b91505061007f565b50600073ffffffffffffffffffffffffffffffffffffffff168573ffffffffffffffffffffffffffffffffffffffff1614156101e95747811115610149576040517f08c379a0000000000000000000000000000000000000000000000000000000008152600401610140906108a6565b60405180910390fd5b60005b84518110156101e357848181518110610168576101676107b4565b5b602002602001015173ffffffffffffffffffffffffffffffffffffffff166108fc85838151811061019c5761019b6107b4565b5b60200260200101519081150290604051600060405180830381858888f193505050501580156101cf573d6000803e3d6000fd5b5080806101db906108c6565b91505061014c565b50610386565b8473ffffffffffffffffffffffffffffffffffffffff1663dd62ed3e33306040518363ffffffff1660e01b815260040161022492919061091e565b602060405180830381865afa158015610241573d6000803e3d6000fd5b505050506040513d601f19601f82011682018060405250810190610265919061095c565b8111156102a7576040517f08c379a000000000000000000000000000000000000000000000000000000000815260040161029e906108a6565b60405180910390fd5b60005b84518160ff161015610384578573ffffffffffffffffffffffffffffffffffffffff166323b872dd33878460ff16815181106102e9576102e86107b4565b5b6020026020010151878560ff1681518110610307576103066107b4565b5b60200260200101516040518463ffffffff1660e01b815260040161032d93929190610998565b6020604051808303816000875af115801561034c573d6000803e3d6000fd5b505050506040513d601f19601f8201168201806040525081019061037091906109fb565b50808061037c9061081f565b9150506102aa565b505b60019150509392505050565b600030905060008173ffffffffffffffffffffffffffffffffffffffff16311115610416573373ffffffffffffffffffffffffffffffffffffffff166108fc8273ffffffffffffffffffffffffffffffffffffffff16319081150290604051600060405180830381858888f19350505050158015610414573d6000803e3d6000fd5b505b50565b600081836104279190610a28565b905092915050565b6000604051905090565b600080fd5b600080fd5b600073ffffffffffffffffffffffffffffffffffffffff82169050919050565b600061046e82610443565b9050919050565b61047e81610463565b811461048957600080fd5b50565b60008135905061049b81610475565b92915050565b600080fd5b6000601f19601f8301169050919050565b7f4e487b7100000000000000000000000000000000000000000000000000000000600052604160045260246000fd5b6104ef826104a6565b810181811067ffffffffffffffff8211171561050e5761050d6104b7565b5b80604052505050565b600061052161042f565b905061052d82826104e6565b919050565b600067ffffffffffffffff82111561054d5761054c6104b7565b5b602082029050602081019050919050565b600080fd5b600061057661057184610532565b610517565b905080838252602082019050602084028301858111156105995761059861055e565b5b835b818110156105c257806105ae888261048c565b84526020840193505060208101905061059b565b5050509392505050565b600082601f8301126105e1576105e06104a1565b5b81356105f1848260208601610563565b91505092915050565b600067ffffffffffffffff821115610615576106146104b7565b5b602082029050602081019050919050565b6000819050919050565b61063981610626565b811461064457600080fd5b50565b60008135905061065681610630565b92915050565b600061066f61066a846105fa565b610517565b905080838252602082019050602084028301858111156106925761069161055e565b5b835b818110156106bb57806106a78882610647565b845260208401935050602081019050610694565b5050509392505050565b600082601f8301126106da576106d96104a1565b5b81356106ea84826020860161065c565b91505092915050565b60008060006060848603121561070c5761070b610439565b5b600061071a8682870161048c565b935050602084013567ffffffffffffffff81111561073b5761073a61043e565b5b610747868287016105cc565b925050604084013567ffffffffffffffff8111156107685761076761043e565b5b610774868287016106c5565b9150509250925092565b60008115159050919050565b6107938161077e565b82525050565b60006020820190506107ae600083018461078a565b92915050565b7f4e487b7100000000000000000000000000000000000000000000000000000000600052603260045260246000fd5b7f4e487b7100000000000000000000000000000000000000000000000000000000600052601160045260246000fd5b600060ff82169050919050565b600061082a82610812565b915060ff82141561083e5761083d6107e3565b5b600182019050919050565b600082825260208201905092915050565b7f416c6c6f77616e6365206973206e6f7420656e6f756768000000000000000000600082015250565b6000610890601783610849565b915061089b8261085a565b602082019050919050565b600060208201905081810360008301526108bf81610883565b9050919050565b60006108d182610626565b91507fffffffffffffffffffffffffffffffffffffffffffffffffffffffffffffffff821415610904576109036107e3565b5b600182019050919050565b61091881610463565b82525050565b6000604082019050610933600083018561090f565b610940602083018461090f565b9392505050565b60008151905061095681610630565b92915050565b60006020828403121561097257610971610439565b5b600061098084828501610947565b91505092915050565b61099281610626565b82525050565b60006060820190506109ad600083018661090f565b6109ba602083018561090f565b6109c76040830184610989565b949350505050565b6109d88161077e565b81146109e357600080fd5b50565b6000815190506109f5816109cf565b92915050565b600060208284031215610a1157610a10610439565b5b6000610a1f848285016109e6565b91505092915050565b6000610a3382610626565b9150610a3e83610626565b9250827fffffffffffffffffffffffffffffffffffffffffffffffffffffffffffffffff03821115610a7357610a726107e3565b5b82820190509291505056fea264697066735822122083f8b60cc8ac3376afb653b879a7f497270c181d4c95af7612ef5f4837b75d9064736f6c634300080a0033",
  "immutableReferences": {},
  "source": "// SPDX-License-Identifier: MIT\npragma solidity ^0.8.0;\n\nimport \"@openzeppelin/contracts/token/ERC20/IERC20.sol\";\nimport \"@openzeppelin/contracts/utils/math/SafeMath.sol\";\n\ncontract MultiSend {\n    using SafeMath for uint256;\n\n    constructor() {}\n\n    function multi_send_token(\n        address token,\n        address[] memory addresses,\n        uint256[] memory amounts\n    ) public payable returns (bool success) {\n        uint256 total = 0;\n        for (uint8 i = 0; i < amounts.length; i++) {\n            total = total.add(amounts[i]);\n        }\n        if (token == address(0)) {\n            require(total <= address(this).balance, \"Allowance is not enough\");\n            for (uint256 j = 0; j < addresses.length; j++) {\n                payable(addresses[j]).transfer(amounts[j]);\n            }\n        } else {\n            // check if user has enough balance\n            require(total <= IERC20(token).allowance(msg.sender, address(this)), \"Allowance is not enough\");\n            // transfer token to addresses\n            for (uint8 j = 0; j < addresses.length; j++) {\n                IERC20(token).transferFrom(msg.sender, addresses[j], amounts[j]);\n            }\n        }\n        return true;\n    }\n\n    function get_balance() public {\n        address addr = address(this);\n        if (addr.balance > 0) {\n            payable(msg.sender).transfer(addr.balance);\n        }\n    }\n}\n",
  "sourcePath": "/Users/necklace/work/nutbox/MultiSend/contracts/MultiSend.sol",
  "compiler": {
    "name": "solc",
    "version": "0.8.10+commit.fc410830.Emscripten.clang"
  },
  "schemaVersion": "3.4.3",
  "updatedAt": "2022-04-27T18:34:36.810Z",
  "networkType": "ethereum",
  "devdoc": {
    "kind": "dev",
    "methods": {},
    "version": 1
  },
  "userdoc": {
    "kind": "user",
    "methods": {},
    "version": 1
  }
}